{
  "contractName": "Batches",
  "abi": [
    {
      "inputs": [
        {
          "internalType": "uint256",
          "name": "",
          "type": "uint256"
        }
      ],
      "name": "batches",
      "outputs": [
        {
          "internalType": "uint256",
          "name": "batchNumber",
          "type": "uint256"
        },
        {
          "internalType": "address",
          "name": "ownerAddress",
          "type": "address"
        }
      ],
      "stateMutability": "view",
      "type": "function",
      "constant": true
    },
    {
      "inputs": [],
      "name": "owner",
      "outputs": [
        {
          "internalType": "address",
          "name": "",
          "type": "address"
        }
      ],
      "stateMutability": "view",
      "type": "function",
      "constant": true
    },
    {
      "inputs": [
        {
          "internalType": "uint256",
          "name": "_batchNumber",
          "type": "uint256"
        }
      ],
      "name": "_createBatch",
      "outputs": [],
      "stateMutability": "nonpayable",
      "type": "function"
    }
  ],
  "bytecode": "0x6080604052336000806101000a81548173ffffffffffffffffffffffffffffffffffffffff021916908373ffffffffffffffffffffffffffffffffffffffff16021790555034801561005057600080fd5b50610307806100606000396000f3fe608060405234801561001057600080fd5b50600436106100415760003560e01c80632e00e43d146100465780638da5cb5b14610062578063b32c4d8d14610080575b600080fd5b610060600480360381019061005b9190610210565b6100b1565b005b61006a61015d565b604051610077919061027e565b60405180910390f35b61009a60048036038101906100959190610210565b610181565b6040516100a89291906102a8565b60405180910390f35b600160405180604001604052808381526020013373ffffffffffffffffffffffffffffffffffffffff1681525090806001815401808255809150506001900390600052602060002090600202016000909190919091506000820151816000015560208201518160010160006101000a81548173ffffffffffffffffffffffffffffffffffffffff021916908373ffffffffffffffffffffffffffffffffffffffff160217905550505050565b60008054906101000a900473ffffffffffffffffffffffffffffffffffffffff1681565b6001818154811061019157600080fd5b90600052602060002090600202016000915090508060000154908060010160009054906101000a900473ffffffffffffffffffffffffffffffffffffffff16905082565b600080fd5b6000819050919050565b6101ed816101da565b81146101f857600080fd5b50565b60008135905061020a816101e4565b92915050565b600060208284031215610226576102256101d5565b5b6000610234848285016101fb565b91505092915050565b600073ffffffffffffffffffffffffffffffffffffffff82169050919050565b60006102688261023d565b9050919050565b6102788161025d565b82525050565b6000602082019050610293600083018461026f565b92915050565b6102a2816101da565b82525050565b60006040820190506102bd6000830185610299565b6102ca602083018461026f565b939250505056fea26469706673582212201280e90a794564ff0cffb00f22bfeccab5c49347ae48f14293f38393f5da293764736f6c63430008130033",
  "immutableReferences": {},
  "source": "// SPDX-License-Identifier: SEE LICENSE IN LICENSE\r\npragma solidity >=0.4.22 <0.9.0;\r\n\r\ncontract Batches {\r\n    //Owner of the invoker of the contract\r\n    address public owner = msg.sender;\r\n    \r\n    //Struct (object) batch contains batchNumber and owner's address\r\n    struct Batch {\r\n        uint256 batchNumber;\r\n        address ownerAddress;\r\n    }\r\n\r\n    //Array of batches that has dynamic size\r\n    Batch[] public batches;\r\n\r\n    //Creates batch, adds to array of batches -> address taken from above\r\n    function _createBatch(uint256 _batchNumber) public {\r\n        batches.push(Batch(_batchNumber, msg.sender));\r\n    }\r\n}",
  "sourcePath": "E:\\College\\Grad Proj\\Project II\\Week 15\\credo\\contracts\\Batches.sol",
  "compiler": {
    "name": "solc",
    "version": "0.8.19+commit.7dd6d404.Emscripten.clang"
  },
  "schemaVersion": "3.4.13",
  "updatedAt": "2023-07-07T18:41:42.291Z",
  "networkType": "ethereum",
  "devdoc": {
    "kind": "dev",
    "methods": {},
    "version": 1
  },
  "userdoc": {
    "kind": "user",
    "methods": {},
    "version": 1
  }
}